{
  "contractName": "Migrations",
  "abi": [
    {
      "inputs": [],
      "payable": false,
      "stateMutability": "nonpayable",
      "type": "constructor"
    },
    {
      "constant": true,
      "inputs": [],
      "name": "ContractOwner",
      "outputs": [
        {
          "internalType": "address",
          "name": "",
          "type": "address"
        }
      ],
      "payable": false,
      "stateMutability": "view",
      "type": "function"
    },
    {
      "constant": true,
      "inputs": [],
      "name": "last_completed_migration",
      "outputs": [
        {
          "internalType": "uint256",
          "name": "",
          "type": "uint256"
        }
      ],
      "payable": false,
      "stateMutability": "view",
      "type": "function"
    },
    {
      "constant": false,
      "inputs": [
        {
          "internalType": "address",
          "name": "UserAddress",
          "type": "address"
        },
        {
          "internalType": "string",
          "name": "FullName",
          "type": "string"
        },
        {
          "internalType": "string",
          "name": "DocNum",
          "type": "string"
        },
        {
          "internalType": "string",
          "name": "IpfsHash",
          "type": "string"
        },
        {
          "internalType": "address",
          "name": "authority",
          "type": "address"
        }
      ],
      "name": "AddUser",
      "outputs": [],
      "payable": false,
      "stateMutability": "nonpayable",
      "type": "function"
    },
    {
      "constant": true,
      "inputs": [
        {
          "internalType": "address",
          "name": "UserAddress",
          "type": "address"
        }
      ],
      "name": "ViewDocRequestLength",
      "outputs": [
        {
          "internalType": "uint256",
          "name": "length",
          "type": "uint256"
        }
      ],
      "payable": false,
      "stateMutability": "view",
      "type": "function"
    },
    {
      "constant": true,
      "inputs": [
        {
          "internalType": "address",
          "name": "OrgAddress",
          "type": "address"
        }
      ],
      "name": "ViewOrgRequestLength",
      "outputs": [
        {
          "internalType": "uint256",
          "name": "length",
          "type": "uint256"
        }
      ],
      "payable": false,
      "stateMutability": "view",
      "type": "function"
    },
    {
      "constant": true,
      "inputs": [
        {
          "internalType": "address",
          "name": "UserAddress",
          "type": "address"
        }
      ],
      "name": "viewUser",
      "outputs": [
        {
          "internalType": "string",
          "name": "FullName",
          "type": "string"
        },
        {
          "internalType": "string",
          "name": "DocNum",
          "type": "string"
        },
        {
          "internalType": "string",
          "name": "IpfsHash",
          "type": "string"
        }
      ],
      "payable": false,
      "stateMutability": "view",
      "type": "function"
    },
    {
      "constant": false,
      "inputs": [
        {
          "internalType": "address",
          "name": "UserAddress",
          "type": "address"
        },
        {
          "internalType": "address",
          "name": "ReqBy",
          "type": "address"
        },
        {
          "internalType": "string",
          "name": "Reqname",
          "type": "string"
        },
        {
          "internalType": "uint256",
          "name": "nameFlag",
          "type": "uint256"
        },
        {
          "internalType": "uint256",
          "name": "numFlag",
          "type": "uint256"
        },
        {
          "internalType": "uint256",
          "name": "ipfsHashFlag",
          "type": "uint256"
        }
      ],
      "name": "AddDocRequest",
      "outputs": [],
      "payable": false,
      "stateMutability": "nonpayable",
      "type": "function"
    },
    {
      "constant": true,
      "inputs": [
        {
          "internalType": "address",
          "name": "UserAddress",
          "type": "address"
        },
        {
          "internalType": "uint256",
          "name": "RequestIndex",
          "type": "uint256"
        }
      ],
      "name": "ViewDocRequestHeader",
      "outputs": [
        {
          "internalType": "address",
          "name": "Reqby",
          "type": "address"
        },
        {
          "internalType": "string",
          "name": "ReqName",
          "type": "string"
        },
        {
          "internalType": "uint256",
          "name": "Overall_Status",
          "type": "uint256"
        }
      ],
      "payable": false,
      "stateMutability": "view",
      "type": "function"
    },
    {
      "constant": true,
      "inputs": [
        {
          "internalType": "address",
          "name": "OrgAddress",
          "type": "address"
        },
        {
          "internalType": "uint256",
          "name": "ReqIndex",
          "type": "uint256"
        }
      ],
      "name": "ViewDocsOrg",
      "outputs": [
        {
          "internalType": "address",
          "name": "UserAddress",
          "type": "address"
        },
        {
          "internalType": "uint256",
          "name": "Index",
          "type": "uint256"
        }
      ],
      "payable": false,
      "stateMutability": "view",
      "type": "function"
    },
    {
      "constant": true,
      "inputs": [
        {
          "internalType": "address",
          "name": "OrgAddress",
          "type": "address"
        },
        {
          "internalType": "address",
          "name": "UserAddress",
          "type": "address"
        }
      ],
      "name": "ViewReqExists",
      "outputs": [
        {
          "internalType": "bool",
          "name": "exists",
          "type": "bool"
        }
      ],
      "payable": false,
      "stateMutability": "view",
      "type": "function"
    },
    {
      "constant": true,
      "inputs": [
        {
          "internalType": "address",
          "name": "UserAddress",
          "type": "address"
        },
        {
          "internalType": "uint256",
          "name": "ReqIndex",
          "type": "uint256"
        }
      ],
      "name": "viewDocRequest",
      "outputs": [
        {
          "internalType": "address",
          "name": "ReqBy",
          "type": "address"
        },
        {
          "internalType": "string",
          "name": "Reqname",
          "type": "string"
        },
        {
          "internalType": "uint256",
          "name": "nameFlag",
          "type": "uint256"
        },
        {
          "internalType": "uint256",
          "name": "numFlag",
          "type": "uint256"
        },
        {
          "internalType": "uint256",
          "name": "ipfsHashFlag",
          "type": "uint256"
        },
        {
          "internalType": "uint256",
          "name": "Overall_status",
          "type": "uint256"
        }
      ],
      "payable": false,
      "stateMutability": "view",
      "type": "function"
    },
    {
      "constant": false,
      "inputs": [
        {
          "internalType": "address",
          "name": "UserAddress",
          "type": "address"
        },
        {
          "internalType": "uint256",
          "name": "RequestIndex",
          "type": "uint256"
        },
        {
          "internalType": "uint256",
          "name": "nameFlag",
          "type": "uint256"
        },
        {
          "internalType": "uint256",
          "name": "numFlag",
          "type": "uint256"
        },
        {
          "internalType": "uint256",
          "name": "ipfsHashFlag",
          "type": "uint256"
        },
        {
          "internalType": "uint256",
          "name": "Overall_Status",
          "type": "uint256"
        }
      ],
      "name": "UpdateRequestStatus",
      "outputs": [],
      "payable": false,
      "stateMutability": "nonpayable",
      "type": "function"
    },
    {
      "constant": false,
      "inputs": [
        {
          "internalType": "address",
          "name": "authorityAdd",
          "type": "address"
        },
        {
          "internalType": "address",
          "name": "UserAddress",
          "type": "address"
        },
        {
          "internalType": "uint256",
          "name": "verifyStatus",
          "type": "uint256"
        },
        {
          "internalType": "string",
          "name": "remarks",
          "type": "string"
        },
        {
          "internalType": "uint256",
          "name": "index",
          "type": "uint256"
        }
      ],
      "name": "UpdateVerifMap",
      "outputs": [],
      "payable": false,
      "stateMutability": "nonpayable",
      "type": "function"
    },
    {
      "constant": true,
      "inputs": [
        {
          "internalType": "address",
          "name": "authority_address",
          "type": "address"
        }
      ],
      "name": "verifMapLength",
      "outputs": [
        {
          "internalType": "uint256",
          "name": "length",
          "type": "uint256"
        }
      ],
      "payable": false,
      "stateMutability": "view",
      "type": "function"
    },
    {
      "constant": true,
      "inputs": [
        {
          "internalType": "address",
          "name": "authority_address",
          "type": "address"
        },
        {
          "internalType": "uint256",
          "name": "index",
          "type": "uint256"
        }
      ],
      "name": "getVerifMap",
      "outputs": [
        {
          "internalType": "address",
          "name": "usradd",
          "type": "address"
        },
        {
          "internalType": "uint256",
          "name": "verifStatus",
          "type": "uint256"
        }
      ],
      "payable": false,
      "stateMutability": "view",
      "type": "function"
    },
    {
      "constant": true,
      "inputs": [
        {
          "internalType": "address",
          "name": "UserAddress",
          "type": "address"
        }
      ],
      "name": "getVerifStatus",
      "outputs": [
        {
          "internalType": "uint256",
          "name": "verifStatus",
          "type": "uint256"
        }
      ],
      "payable": false,
      "stateMutability": "view",
      "type": "function"
    },
    {
      "constant": false,
      "inputs": [
        {
          "internalType": "uint256",
          "name": "completed",
          "type": "uint256"
        }
      ],
      "name": "setCompleted",
      "outputs": [],
      "payable": false,
      "stateMutability": "nonpayable",
      "type": "function"
    }
  ],
  "bytecode": "0x608060405234801561001057600080fd5b5033600160006101000a81548173ffffffffffffffffffffffffffffffffffffffff021916908373ffffffffffffffffffffffffffffffffffffffff16021790555061209e806100616000396000f3fe608060405234801561001057600080fd5b506004361061010b5760003560e01c80635a63fbc9116100a2578063937a6f5f11610071578063937a6f5f14610b305780639e1a278614610bac578063b2c23aed14610c04578063fdacd57614610c5c578063fe27646914610c8a5761010b565b80635a63fbc9146107da5780636cc8bda7146108245780637564e265146109b9578063772b89f614610aba5761010b565b8063445df0ac116100de578063445df0ac146104f857806348b6fba4146105165780634e3dd8d11461062f578063556343f0146106c45761010b565b806304b7ee0614610110578063061cffd51461016857806327b6271a146103915780632d028765146103e9575b600080fd5b6101526004803603602081101561012657600080fd5b81019080803573ffffffffffffffffffffffffffffffffffffffff169060200190929190505050610d1f565b6040518082815260200191505060405180910390f35b61038f600480360360a081101561017e57600080fd5b81019080803573ffffffffffffffffffffffffffffffffffffffff169060200190929190803590602001906401000000008111156101bb57600080fd5b8201836020820111156101cd57600080fd5b803590602001918460018302840111640100000000831117156101ef57600080fd5b91908080601f016020809104026020016040519081016040528093929190818152602001838380828437600081840152601f19601f8201169050808301925050505050505091929192908035906020019064010000000081111561025257600080fd5b82018360208201111561026457600080fd5b8035906020019184600183028401116401000000008311171561028657600080fd5b91908080601f016020809104026020016040519081016040528093929190818152602001838380828437600081840152601f19601f820116905080830192505050505050509192919290803590602001906401000000008111156102e957600080fd5b8201836020820111156102fb57600080fd5b8035906020019184600183028401116401000000008311171561031d57600080fd5b91908080601f016020809104026020016040519081016040528093929190818152602001838380828437600081840152601f19601f820116905080830192505050505050509192919290803573ffffffffffffffffffffffffffffffffffffffff169060200190929190505050610d6b565b005b6103d3600480360360208110156103a757600080fd5b81019080803573ffffffffffffffffffffffffffffffffffffffff169060200190929190505050610f80565b6040518082815260200191505060405180910390f35b6104f6600480360360a08110156103ff57600080fd5b81019080803573ffffffffffffffffffffffffffffffffffffffff169060200190929190803573ffffffffffffffffffffffffffffffffffffffff169060200190929190803590602001909291908035906020019064010000000081111561046657600080fd5b82018360208201111561047857600080fd5b8035906020019184600183028401116401000000008311171561049a57600080fd5b91908080601f016020809104026020016040519081016040528093929190818152602001838380828437600081840152601f19601f82011690508083019250505050505050919291929080359060200190929190505050610fce565b005b610500611134565b6040518082815260200191505060405180910390f35b61062d600480360360c081101561052c57600080fd5b81019080803573ffffffffffffffffffffffffffffffffffffffff169060200190929190803573ffffffffffffffffffffffffffffffffffffffff1690602001909291908035906020019064010000000081111561058957600080fd5b82018360208201111561059b57600080fd5b803590602001918460018302840111640100000000831117156105bd57600080fd5b91908080601f016020809104026020016040519081016040528093929190818152602001838380828437600081840152601f19601f82011690508083019250505050505050919291929080359060200190929190803590602001909291908035906020019092919050505061113a565b005b61067b6004803603604081101561064557600080fd5b81019080803573ffffffffffffffffffffffffffffffffffffffff169060200190929190803590602001909291905050506113b0565b604051808373ffffffffffffffffffffffffffffffffffffffff1673ffffffffffffffffffffffffffffffffffffffff1681526020018281526020019250505060405180910390f35b610710600480360360408110156106da57600080fd5b81019080803573ffffffffffffffffffffffffffffffffffffffff16906020019092919080359060200190929190505050611496565b604051808773ffffffffffffffffffffffffffffffffffffffff1673ffffffffffffffffffffffffffffffffffffffff16815260200180602001868152602001858152602001848152602001838152602001828103825287818151815260200191508051906020019080838360005b8381101561079a57808201518184015260208101905061077f565b50505050905090810190601f1680156107c75780820380516001836020036101000a031916815260200191505b5097505050505050505060405180910390f35b6107e2611665565b604051808273ffffffffffffffffffffffffffffffffffffffff1673ffffffffffffffffffffffffffffffffffffffff16815260200191505060405180910390f35b6108666004803603602081101561083a57600080fd5b81019080803573ffffffffffffffffffffffffffffffffffffffff16906020019092919050505061168b565b60405180806020018060200180602001848103845287818151815260200191508051906020019080838360005b838110156108ae578082015181840152602081019050610893565b50505050905090810190601f1680156108db5780820380516001836020036101000a031916815260200191505b50848103835286818151815260200191508051906020019080838360005b838110156109145780820151818401526020810190506108f9565b50505050905090810190601f1680156109415780820380516001836020036101000a031916815260200191505b50848103825285818151815260200191508051906020019080838360005b8381101561097a57808201518184015260208101905061095f565b50505050905090810190601f1680156109a75780820380516001836020036101000a031916815260200191505b50965050505050505060405180910390f35b610a05600480360360408110156109cf57600080fd5b81019080803573ffffffffffffffffffffffffffffffffffffffff1690602001909291908035906020019092919050505061190a565b604051808473ffffffffffffffffffffffffffffffffffffffff1673ffffffffffffffffffffffffffffffffffffffff16815260200180602001838152602001828103825284818151815260200191508051906020019080838360005b83811015610a7d578082015181840152602081019050610a62565b50505050905090810190601f168015610aaa5780820380516001836020036101000a031916815260200191505b5094505050505060405180910390f35b610b2e600480360360c0811015610ad057600080fd5b81019080803573ffffffffffffffffffffffffffffffffffffffff1690602001909291908035906020019092919080359060200190929190803590602001909291908035906020019092919080359060200190929190505050611abd565b005b610b9260048036036040811015610b4657600080fd5b81019080803573ffffffffffffffffffffffffffffffffffffffff169060200190929190803573ffffffffffffffffffffffffffffffffffffffff169060200190929190505050611c45565b604051808215151515815260200191505060405180910390f35b610bee60048036036020811015610bc257600080fd5b81019080803573ffffffffffffffffffffffffffffffffffffffff169060200190929190505050611d6f565b6040518082815260200191505060405180910390f35b610c4660048036036020811015610c1a57600080fd5b81019080803573ffffffffffffffffffffffffffffffffffffffff169060200190929190505050611dbb565b6040518082815260200191505060405180910390f35b610c8860048036036020811015610c7257600080fd5b8101908080359060200190929190505050611e07565b005b610cd660048036036040811015610ca057600080fd5b81019080803573ffffffffffffffffffffffffffffffffffffffff16906020019092919080359060200190929190505050611e11565b604051808373ffffffffffffffffffffffffffffffffffffffff1673ffffffffffffffffffffffffffffffffffffffff1681526020018281526020019250505060405180910390f35b6000600760008373ffffffffffffffffffffffffffffffffffffffff1673ffffffffffffffffffffffffffffffffffffffff168152602001908152602001600020805490509050919050565b600260008673ffffffffffffffffffffffffffffffffffffffff1673ffffffffffffffffffffffffffffffffffffffff168152602001908152602001600020604051806060016040528086815260200185815260200184815250908060018154018082558091505090600182039060005260206000209060030201600090919290919091506000820151816000019080519060200190610e0c929190611ef7565b506020820151816001019080519060200190610e29929190611ef7565b506040820151816002019080519060200190610e46929190611ef7565b505050506000600560008773ffffffffffffffffffffffffffffffffffffffff1673ffffffffffffffffffffffffffffffffffffffff16815260200190815260200160002081905550600760008273ffffffffffffffffffffffffffffffffffffffff1673ffffffffffffffffffffffffffffffffffffffff16815260200190815260200160002060405180604001604052808773ffffffffffffffffffffffffffffffffffffffff16815260200160008152509080600181540180825580915050906001820390600052602060002090600202016000909192909190915060008201518160000160006101000a81548173ffffffffffffffffffffffffffffffffffffffff021916908373ffffffffffffffffffffffffffffffffffffffff160217905550602082015181600101555050505050505050565b600080600560008473ffffffffffffffffffffffffffffffffffffffff1673ffffffffffffffffffffffffffffffffffffffff16815260200190815260200160002054905080915050919050565b604051806040016040528083815260200184815250600660008773ffffffffffffffffffffffffffffffffffffffff1673ffffffffffffffffffffffffffffffffffffffff16815260200190815260200160002060008673ffffffffffffffffffffffffffffffffffffffff1673ffffffffffffffffffffffffffffffffffffffff168152602001908152602001600020600082015181600001908051906020019061107b929190611ef7565b506020820151816001015590505082600560008673ffffffffffffffffffffffffffffffffffffffff1673ffffffffffffffffffffffffffffffffffffffff1681526020019081526020016000208190555082600760008773ffffffffffffffffffffffffffffffffffffffff1673ffffffffffffffffffffffffffffffffffffffff168152602001908152602001600020828154811061111857fe5b9060005260206000209060020201600101819055505050505050565b60005481565b6000600360008873ffffffffffffffffffffffffffffffffffffffff1673ffffffffffffffffffffffffffffffffffffffff168152602001908152602001600020805490509050600360008873ffffffffffffffffffffffffffffffffffffffff1673ffffffffffffffffffffffffffffffffffffffff1681526020019081526020016000206040518060c001604052808873ffffffffffffffffffffffffffffffffffffffff16815260200187815260200186815260200185815260200184815260200160008152509080600181540180825580915050906001820390600052602060002090600602016000909192909190915060008201518160000160006101000a81548173ffffffffffffffffffffffffffffffffffffffff021916908373ffffffffffffffffffffffffffffffffffffffff1602179055506020820151816001019080519060200190611292929190611ef7565b5060408201518160020155606082015181600301556080820151816004015560a08201518160050155505050600460008773ffffffffffffffffffffffffffffffffffffffff1673ffffffffffffffffffffffffffffffffffffffff16815260200190815260200160002060405180604001604052808973ffffffffffffffffffffffffffffffffffffffff168152602001838152509080600181540180825580915050906001820390600052602060002090600202016000909192909190915060008201518160000160006101000a81548173ffffffffffffffffffffffffffffffffffffffff021916908373ffffffffffffffffffffffffffffffffffffffff1602179055506020820151816001015550505050505050505050565b6000806113bb611f77565b600460008673ffffffffffffffffffffffffffffffffffffffff1673ffffffffffffffffffffffffffffffffffffffff168152602001908152602001600020848154811061140557fe5b90600052602060002090600202016040518060400160405290816000820160009054906101000a900473ffffffffffffffffffffffffffffffffffffffff1673ffffffffffffffffffffffffffffffffffffffff1673ffffffffffffffffffffffffffffffffffffffff16815260200160018201548152505090508060000151816020015192509250509250929050565b600060606000806000806114a8611fa7565b600360008a73ffffffffffffffffffffffffffffffffffffffff1673ffffffffffffffffffffffffffffffffffffffff16815260200190815260200160002088815481106114f257fe5b90600052602060002090600602016040518060c00160405290816000820160009054906101000a900473ffffffffffffffffffffffffffffffffffffffff1673ffffffffffffffffffffffffffffffffffffffff1673ffffffffffffffffffffffffffffffffffffffff168152602001600182018054600181600116156101000203166002900480601f0160208091040260200160405190810160405280929190818152602001828054600181600116156101000203166002900480156115fa5780601f106115cf576101008083540402835291602001916115fa565b820191906000526020600020905b8154815290600101906020018083116115dd57829003601f168201915b505050505081526020016002820154815260200160038201548152602001600482015481526020016005820154815250509050806000015181602001518260400151836060015184608001518560a00151849450965096509650965096509650509295509295509295565b600160009054906101000a900473ffffffffffffffffffffffffffffffffffffffff1681565b6060806060611698611ff3565b600260008673ffffffffffffffffffffffffffffffffffffffff1673ffffffffffffffffffffffffffffffffffffffff1681526020019081526020016000206000815481106116e357fe5b9060005260206000209060030201604051806060016040529081600082018054600181600116156101000203166002900480601f0160208091040260200160405190810160405280929190818152602001828054600181600116156101000203166002900480156117955780601f1061176a57610100808354040283529160200191611795565b820191906000526020600020905b81548152906001019060200180831161177857829003601f168201915b50505050508152602001600182018054600181600116156101000203166002900480601f0160208091040260200160405190810160405280929190818152602001828054600181600116156101000203166002900480156118375780601f1061180c57610100808354040283529160200191611837565b820191906000526020600020905b81548152906001019060200180831161181a57829003601f168201915b50505050508152602001600282018054600181600116156101000203166002900480601f0160208091040260200160405190810160405280929190818152602001828054600181600116156101000203166002900480156118d95780601f106118ae576101008083540402835291602001916118d9565b820191906000526020600020905b8154815290600101906020018083116118bc57829003601f168201915b5050505050815250509050806000015181602001518260400151829250819150809050935093509350509193909250565b600060606000611918611fa7565b600360008773ffffffffffffffffffffffffffffffffffffffff1673ffffffffffffffffffffffffffffffffffffffff168152602001908152602001600020858154811061196257fe5b90600052602060002090600602016040518060c00160405290816000820160009054906101000a900473ffffffffffffffffffffffffffffffffffffffff1673ffffffffffffffffffffffffffffffffffffffff1673ffffffffffffffffffffffffffffffffffffffff168152602001600182018054600181600116156101000203166002900480601f016020809104026020016040519081016040528092919081815260200182805460018160011615610100020316600290048015611a6a5780601f10611a3f57610100808354040283529160200191611a6a565b820191906000526020600020905b815481529060010190602001808311611a4d57829003601f168201915b505050505081526020016002820154815260200160038201548152602001600482015481526020016005820154815250509050806000015181602001518260a00151819150935093509350509250925092565b83600360008873ffffffffffffffffffffffffffffffffffffffff1673ffffffffffffffffffffffffffffffffffffffff1681526020019081526020016000208681548110611b0857fe5b90600052602060002090600602016002018190555082600360008873ffffffffffffffffffffffffffffffffffffffff1673ffffffffffffffffffffffffffffffffffffffff1681526020019081526020016000208681548110611b6857fe5b90600052602060002090600602016003018190555081600360008873ffffffffffffffffffffffffffffffffffffffff1673ffffffffffffffffffffffffffffffffffffffff1681526020019081526020016000208681548110611bc857fe5b90600052602060002090600602016004018190555080600360008873ffffffffffffffffffffffffffffffffffffffff1673ffffffffffffffffffffffffffffffffffffffff1681526020019081526020016000208681548110611c2857fe5b906000526020600020906006020160050181905550505050505050565b6000806000905060008090505b600460008673ffffffffffffffffffffffffffffffffffffffff1673ffffffffffffffffffffffffffffffffffffffff16815260200190815260200160002080549050811015611d63578373ffffffffffffffffffffffffffffffffffffffff16600460008773ffffffffffffffffffffffffffffffffffffffff1673ffffffffffffffffffffffffffffffffffffffff1681526020019081526020016000208281548110611cfd57fe5b906000526020600020906002020160000160009054906101000a900473ffffffffffffffffffffffffffffffffffffffff1673ffffffffffffffffffffffffffffffffffffffff161415611d5657600192505050611d69565b8080600101915050611c52565b50809150505b92915050565b6000600460008373ffffffffffffffffffffffffffffffffffffffff1673ffffffffffffffffffffffffffffffffffffffff168152602001908152602001600020805490509050919050565b6000600360008373ffffffffffffffffffffffffffffffffffffffff1673ffffffffffffffffffffffffffffffffffffffff168152602001908152602001600020805490509050919050565b8060008190555050565b600080611e1c612014565b600760008673ffffffffffffffffffffffffffffffffffffffff1673ffffffffffffffffffffffffffffffffffffffff1681526020019081526020016000208481548110611e6657fe5b90600052602060002090600202016040518060400160405290816000820160009054906101000a900473ffffffffffffffffffffffffffffffffffffffff1673ffffffffffffffffffffffffffffffffffffffff1673ffffffffffffffffffffffffffffffffffffffff16815260200160018201548152505090508060000151816020015192509250509250929050565b828054600181600116156101000203166002900490600052602060002090601f016020900481019282601f10611f3857805160ff1916838001178555611f66565b82800160010185558215611f66579182015b82811115611f65578251825591602001919060010190611f4a565b5b509050611f739190612044565b5090565b6040518060400160405280600073ffffffffffffffffffffffffffffffffffffffff168152602001600081525090565b6040518060c00160405280600073ffffffffffffffffffffffffffffffffffffffff16815260200160608152602001600081526020016000815260200160008152602001600081525090565b60405180606001604052806060815260200160608152602001606081525090565b6040518060400160405280600073ffffffffffffffffffffffffffffffffffffffff168152602001600081525090565b61206691905b8082111561206257600081600090555060010161204a565b5090565b9056fea265627a7a7231582096e1da36fd5594ed2b18b92f96250c0e6aeb7dd1e50106501235b92865ca1b4c64736f6c63430005100032",
  "source": "// SPDX-License-Identifier: MIT\npragma solidity >=0.4.22 <0.9.0;\n\ncontract Migrations {\n  \n  uint public last_completed_migration;\n  address public ContractOwner;\n  \n  constructor() public {\n        ContractOwner = msg.sender;\n    }\n  \n\n    struct UserInfo{\n\t\tstring FullName;\n\t\tstring DocNum;\n\t\tstring IpfsHash;\n    }\n\n    struct DocRequest{\n\t\taddress ReqBy;\n    string reqName;\n    uint DocName;\n    uint DocNum;\n\t\tuint IpfsHash;\n    uint Overall_status;\n\n    }\n\n    struct Org_reqlist{\n      address UserAddress;\n      uint Index;\n    }\n\n    struct doubleAdd{\n      address UserAddress;\n      address authority_address;\n    }\n\n    struct verifremarks{\n      string remarks;\n      uint status;\n    }\n\n    \n    struct verf_list{\n      address UserAddress;\n      uint verif_stat;\n    }\n\n\n  mapping(address => UserInfo[]) UserMap;\n  mapping (address => DocRequest[]) DocReqMap;\n  mapping (address => Org_reqlist[]) Org_DocReqMap;\n\n\n\n\n  mapping (address => uint) VerifStatusmap;\n  mapping (address=>mapping(address=>verifremarks)) Verifmap;\n  mapping (address =>verf_list[]) ForverifmapLength;\n  \n\n\n  function AddUser(address UserAddress,string memory FullName,string memory DocNum,string memory IpfsHash,address authority) public {\n        UserMap[UserAddress].push(UserInfo(FullName,DocNum,IpfsHash));\n        VerifStatusmap[UserAddress] = 0;\n        ForverifmapLength[authority].push(verf_list(UserAddress,0));\n        \n    } \n\n  //Requesting Authority\n\n    function ViewDocRequestLength(address UserAddress) public view returns(uint length){\n        return DocReqMap[UserAddress].length;\n    }\n\n\n    function ViewOrgRequestLength(address OrgAddress) public view returns(uint length){\n        return Org_DocReqMap[OrgAddress].length;\n    }\n\n\n\n    function viewUser(address UserAddress) public view returns(string memory FullName,string memory DocNum, string memory IpfsHash) {\n        UserInfo memory ThisUser = UserMap[UserAddress][0];\n        return (ThisUser.FullName, ThisUser.DocNum, ThisUser.IpfsHash);\n    }\n  \n\n\n    function AddDocRequest (address UserAddress,address ReqBy, string memory Reqname, uint nameFlag, uint numFlag , uint ipfsHashFlag) public{\n      uint len = DocReqMap[UserAddress].length;\n      DocReqMap[UserAddress].push(DocRequest(ReqBy,Reqname,nameFlag,numFlag,ipfsHashFlag,0));\n      Org_DocReqMap[ReqBy].push(Org_reqlist(UserAddress,len));\n    }\n\n\n     function ViewDocRequestHeader(address UserAddress, uint RequestIndex) public view returns(address Reqby,string memory ReqName, uint Overall_Status)\n    {\n        DocRequest memory ThisDocRequest=DocReqMap[UserAddress][RequestIndex];\n        return (ThisDocRequest.ReqBy,ThisDocRequest.reqName,ThisDocRequest.Overall_status);\n    }\n\n   \n    function ViewDocsOrg (address OrgAddress, uint ReqIndex)public view returns(address UserAddress,uint Index){\n        Org_reqlist memory Org_req = Org_DocReqMap[OrgAddress][ReqIndex];\n        return (Org_req.UserAddress, Org_req.Index);\n    }\n\n    function ViewReqExists (address OrgAddress,address UserAddress) public view returns (bool exists){\n      bool res = false;\n      for (uint i = 0; i < Org_DocReqMap[OrgAddress].length ; i++){\n        \n        if(Org_DocReqMap[OrgAddress][i].UserAddress == UserAddress){\n          return (true);\n        }\n      }\n      return (res);\n    }\n\n    function viewDocRequest (address UserAddress,uint ReqIndex) public view returns (address ReqBy, string memory Reqname, uint nameFlag, uint numFlag , uint ipfsHashFlag,uint Overall_status){\n      DocRequest memory ThisRequest = DocReqMap[UserAddress][ReqIndex];\n      return (ThisRequest.ReqBy,ThisRequest.reqName,ThisRequest.DocName,ThisRequest.DocNum,ThisRequest.IpfsHash,ThisRequest.Overall_status);\n\n    }\n\n\n\n     function UpdateRequestStatus(address UserAddress, uint RequestIndex, uint nameFlag, uint numFlag, uint ipfsHashFlag ,uint Overall_Status) public {\n    \n    DocReqMap[UserAddress][RequestIndex].DocName=nameFlag;\n\t\tDocReqMap[UserAddress][RequestIndex].DocNum=numFlag;\n\t\tDocReqMap[UserAddress][RequestIndex].IpfsHash=ipfsHashFlag;\n\t\tDocReqMap[UserAddress][RequestIndex].Overall_status=Overall_Status;\n\t\t\n    }\n\n//verification Authority\n\n     function UpdateVerifMap (address authorityAdd,address UserAddress,uint verifyStatus, string memory remarks, uint index) public {\n    Verifmap[authorityAdd][UserAddress] = verifremarks(remarks,verifyStatus);\n    \n    //for overall identification status especially used for user side\n    VerifStatusmap[UserAddress] = verifyStatus;\n    \n    ForverifmapLength[authorityAdd][index].verif_stat = verifyStatus;\n  }\n\n  function verifMapLength(address authority_address)public view returns(uint length){\n    return ForverifmapLength[authority_address].length;\n  }\n\n  function getVerifMap(address authority_address,uint index) public view returns(address usradd, uint verifStatus){\n     verf_list memory temp = ForverifmapLength[authority_address][index];\n      return (temp.UserAddress, temp.verif_stat);\n  }\n\n  function getVerifStatus(address UserAddress) public view returns(uint verifStatus){\n    uint val = VerifStatusmap[UserAddress];\n    return val;\n  }\n\n\n\n//function for truffle\n  function setCompleted(uint completed) public {\n    last_completed_migration = completed;\n  } \n\n\n}\n",
  "sourcePath": "E:\\training\\truffle\\id\\contracts\\Migrations.sol",
  "compiler": {
    "name": "solc",
    "version": "0.5.16+commit.9c3226ce.Emscripten.clang"
  },
  "schemaVersion": "3.4.3",
  "updatedAt": "2022-03-19T04:43:19.395Z",
  "networkType": "ethereum",
  "devdoc": {
    "methods": {}
  },
  "userdoc": {
    "methods": {}
  }
}